{
  "contractName": "MerkleTreeMiMC",
  "abi": [
    {
      "constant": true,
      "inputs": [],
      "name": "treeHeight",
      "outputs": [
        {
          "name": "",
          "type": "uint256"
        }
      ],
      "payable": false,
      "stateMutability": "view",
      "type": "function"
    },
    {
      "constant": true,
      "inputs": [
        {
          "name": "in_msgs",
          "type": "uint256[]"
        },
        {
          "name": "in_key",
          "type": "uint256"
        }
      ],
      "name": "Hash",
      "outputs": [
        {
          "name": "",
          "type": "uint256"
        }
      ],
      "payable": false,
      "stateMutability": "pure",
      "type": "function"
    },
    {
      "constant": true,
      "inputs": [],
      "name": "leafCount",
      "outputs": [
        {
          "name": "",
          "type": "uint256"
        }
      ],
      "payable": false,
      "stateMutability": "view",
      "type": "function"
    },
    {
      "constant": true,
      "inputs": [
        {
          "name": "in_msgs",
          "type": "bytes32[2]"
        }
      ],
      "name": "mimcHash2",
      "outputs": [
        {
          "name": "",
          "type": "bytes32"
        }
      ],
      "payable": false,
      "stateMutability": "pure",
      "type": "function"
    },
    {
      "constant": true,
      "inputs": [],
      "name": "treeWidth",
      "outputs": [
        {
          "name": "",
          "type": "uint256"
        }
      ],
      "payable": false,
      "stateMutability": "view",
      "type": "function"
    },
    {
      "constant": true,
      "inputs": [
        {
          "name": "in_x",
          "type": "uint256"
        },
        {
          "name": "in_k",
          "type": "uint256"
        }
      ],
      "name": "Encipher",
      "outputs": [
        {
          "name": "out_x",
          "type": "uint256"
        }
      ],
      "payable": false,
      "stateMutability": "pure",
      "type": "function"
    },
    {
      "constant": true,
      "inputs": [
        {
          "name": "in_msgs",
          "type": "bytes32[]"
        }
      ],
      "name": "mimcHash",
      "outputs": [
        {
          "name": "",
          "type": "bytes32"
        }
      ],
      "payable": false,
      "stateMutability": "pure",
      "type": "function"
    },
    {
      "anonymous": false,
      "inputs": [
        {
          "indexed": false,
          "name": "leafIndex",
          "type": "uint256"
        },
        {
          "indexed": false,
          "name": "leafValue",
          "type": "bytes32"
        },
        {
          "indexed": false,
          "name": "root",
          "type": "bytes32"
        }
      ],
      "name": "NewLeaf",
      "type": "event"
    },
    {
      "anonymous": false,
      "inputs": [
        {
          "indexed": false,
          "name": "minLeafIndex",
          "type": "uint256"
        },
        {
          "indexed": false,
          "name": "leafValues",
          "type": "bytes32[]"
        },
        {
          "indexed": false,
          "name": "root",
          "type": "bytes32"
        }
      ],
      "name": "NewLeaves",
      "type": "event"
    },
    {
      "constant": true,
      "inputs": [
        {
          "name": "leafIndex",
          "type": "uint256"
        }
      ],
      "name": "getFrontierSlot",
      "outputs": [
        {
          "name": "slot",
          "type": "uint256"
        }
      ],
      "payable": false,
      "stateMutability": "pure",
      "type": "function"
    },
    {
      "constant": false,
      "inputs": [
        {
          "name": "leafValue",
          "type": "bytes32"
        }
      ],
      "name": "insertLeaf",
      "outputs": [
        {
          "name": "root",
          "type": "bytes32"
        }
      ],
      "payable": false,
      "stateMutability": "nonpayable",
      "type": "function"
    },
    {
      "constant": false,
      "inputs": [
        {
          "name": "leafValues",
          "type": "bytes32[]"
        }
      ],
      "name": "insertLeaves",
      "outputs": [
        {
          "name": "root",
          "type": "bytes32"
        }
      ],
      "payable": false,
      "stateMutability": "nonpayable",
      "type": "function"
    }
  ],
  "bytecode": "0x608060405234801561001057600080fd5b50610f9c806100206000396000f3fe608060405234801561001057600080fd5b506004361061009e5760003560e01c80635c8b80ab116100665780635c8b80ab1461027057806376c601b1146102b257806396d8d820146102d0578063aa0324a01461031c578063dc52bf9f146103e85761009e565b806301e3e915146100a35780630fa16e38146100c15780632a3a81831461019757806330e69fc3146101d9578063599a29e4146101f7575b600080fd5b6100ab6104b4565b6040518082815260200191505060405180910390f35b610181600480360360408110156100d757600080fd5b81019080803590602001906401000000008111156100f457600080fd5b82018360208201111561010657600080fd5b8035906020019184602083028401116401000000008311171561012857600080fd5b919080806020026020016040519081016040528093929190818152602001838360200280828437600081840152601f19601f820116905080830192505050505050509192919290803590602001909291905050506104b9565b6040518082815260200191505060405180910390f35b6101c3600480360360208110156101ad57600080fd5b8101908080359060200190929190505050610543565b6040518082815260200191505060405180910390f35b6101e16105ba565b6040518082815260200191505060405180910390f35b61025a6004803603604081101561020d57600080fd5b8101908080604001906002806020026040519081016040528092919082600260200280828437600081840152601f19601f82011690508083019250505050505091929192905050506105c0565b6040518082815260200191505060405180910390f35b61029c6004803603602081101561028657600080fd5b8101908080359060200190929190505050610669565b6040518082815260200191505060405180910390f35b6102ba61084f565b6040518082815260200191505060405180910390f35b610306600480360360408110156102e657600080fd5b810190808035906020019092919080359060200190929190505050610857565b6040518082815260200191505060405180910390f35b6103d26004803603602081101561033257600080fd5b810190808035906020019064010000000081111561034f57600080fd5b82018360208201111561036157600080fd5b8035906020019184602083028401116401000000008311171561038357600080fd5b919080806020026020016040519081016040528093929190818152602001838360200280828437600081840152601f19601f8201169050808301925050505050505091929192905050506108e1565b6040518082815260200191505060405180910390f35b61049e600480360360208110156103fe57600080fd5b810190808035906020019064010000000081111561041b57600080fd5b82018360208201111561042d57600080fd5b8035906020019184602083028401116401000000008311171561044f57600080fd5b919080806020026020016040519081016040528093929190818152602001838360200280828437600081840152601f19601f82011690508083019250505050505050919291929050505061097a565b6040518082815260200191505060405180910390f35b602081565b600080636d696d6360e01b905061053a84848360405160200180827bffffffffffffffffffffffffffffffffffffffffffffffffffffffff19167bffffffffffffffffffffffffffffffffffffffffffffffffffffffff191681526004019150506040516020818303038152906040528051906020012060001c605b610ddd565b91505092915050565b600080905060016002838161055457fe5b0614156105b5576000600190506000600290506000600182901b90505b60008414156105b1576000818360018801038161058a57fe5b061415610599578293506105ac565b809150600181901b905082806001019350505b610571565b5050505b919050565b60005481565b6000606060026040519080825280602002602001820160405280156105f45781602001602082028038833980820191505090505b5090508260006002811061060457fe5b602002015160001c8160008151811061061957fe5b6020026020010181815250508260016002811061063257fe5b602002015160001c8160018151811061064757fe5b60200260200101818152505061065e8160006104b9565b60001b915050919050565b60008054602060020a116106c8576040517f08c379a0000000000000000000000000000000000000000000000000000000008152600401808060200182810382526023815260200180610f4e6023913960400191505060405180910390fd5b60006106d5600054610543565b905060006001602060020a6000540103905060008490506106f4610f08565b60008090505b60208110156107e5578481141561071f57826001866020811061071957fe5b01819055505b60006002858161072b57fe5b06141561078e576001816020811061073f57fe5b01548260006002811061074e57fe5b602002018181525050828260016002811061076557fe5b602002018181525050610777826105c0565b92506002600185038161078657fe5b0493506107d8565b828260006002811061079c57fe5b6020020181815250506000801b826001600281106107b657fe5b6020020181815250506107c8826105c0565b9250600284816107d457fe5b0493505b80806001019150506106fa565b508194507f6a82ba2aa1d2c039c41e6e2b5a5a1090d09906f060d32af9c1ac0beff7af75c0600054878760405180848152602001838152602001828152602001935050505060405180910390a1600080815480929190600101919050555084945050505050919050565b602060020a81565b600080636d696d6360e01b90506108d884848360405160200180827bffffffffffffffffffffffffffffffffffffffffffffffffffffffff19167bffffffffffffffffffffffffffffffffffffffffffffffffffffffff191681526004019150506040516020818303038152906040528051906020012060001c605b610e7c565b91505092915050565b6000606082516040519080825280602002602001820160405280156109155781602001602082028038833980820191505090505b50905060008090505b83518110156109635783818151811061093357fe5b602002602001015160001c82828151811061094a57fe5b602002602001018181525050808060010191505061091e565b5061096f8160006104b9565b60001b915050919050565b60008082519050600054602060020a116109df576040517f08c379a0000000000000000000000000000000000000000000000000000000008152600401808060200182810382526023815260200180610f4e6023913960400191505060405180910390fd5b600054602060020a03811115610a2d5760008054602060020a038203905060008090505b81811015610a1f57600185510385528080600101915050610a03565b50600054602060020a039150505b6000806000610a3a610f08565b610a42610f2a565b6001602080602002604051908101604052809291908260208015610a7b576020028201915b815481526020019060010190808311610a67575b505050505090506000805490505b8660005401811015610be85788600054820381518110610aa557fe5b602002602001015193506001602060020a8201039450610ac481610543565b95506000861415610aea5783828760208110610adc57fe5b602002018181525050610bdb565b6000600190505b868111610bc357600060028781610b0457fe5b061415610b6c57826001820360208110610b1a57fe5b602002015184600060028110610b2c57fe5b6020020181815250508484600160028110610b4357fe5b602002018181525050610b55846105c0565b945060026001870381610b6457fe5b049550610bb6565b8484600060028110610b7a57fe5b6020020181815250506000801b84600160028110610b9457fe5b602002018181525050610ba6846105c0565b945060028681610bb257fe5b0495505b8080600101915050610af1565b5083828760208110610bd157fe5b6020020181815250505b8080600101915050610a89565b5060008090505b6020811015610c4e57818160208110610c0457fe5b602002015160018260208110610c1657fe5b015414610c4157818160208110610c2957fe5b602002015160018260208110610c3b57fe5b01819055505b8080600101915050610bef565b50610c57610f2a565b905060006001860190505b60208111610d3257600060028681610c7657fe5b061415610cdb57600180820360208110610c8c57fe5b015483600060028110610c9b57fe5b6020020181815250508383600160028110610cb257fe5b602002018181525050610cc4836105c0565b935060026001860381610cd357fe5b049450610d25565b8383600060028110610ce957fe5b6020020181815250506000801b83600160028110610d0357fe5b602002018181525050610d15836105c0565b935060028581610d2157fe5b0494505b8080600101915050610c62565b508296507f8ec50f97970775682a68d3c6f9caedf60fd82448ea40706b8b65d6c03648b92260005489896040518084815260200180602001838152602001828103825284818151815260200191508051906020019060200280838360005b83811015610dab578082015181840152602081019050610d90565b5050505090500194505050505060405180910390a1856000808282540192505081905550869650505050505050919050565b60008084905060007f30644e72e131a029b85045b68181585d2833e84879b9709143e1f593f0000001905060008090505b8751811015610e6e5781610e37898381518110610e2757fe5b6020026020010151858989610e7c565b838a8481518110610e4457fe5b602002602001015181610e5357fe5b0685010181610e5e57fe5b0692508080600101915050610e0e565b829350505050949350505050565b60006001821015610e8c57600080fd5b604051602081016040528381527f30644e72e131a029b85045b68181585d2833e84879b9709143e1f593f0000001600080855b6000811115610ef55760208520855283898587518d08089250838384099150838385868586098509099950600181039050610ebf565b5082888a08945050505050949350505050565b6040518060400160405280600290602082028038833980820191505090505090565b60405180610400016040528060209060208202803883398082019150509050509056fe5468657265206973206e6f207370616365206c65667420696e2074686520747265652ea165627a7a7230582015373031362a302c531fd76525416cc4c6d33f663a1dc5061e79b7c7b0396c370029",
  "source": "/**\nA base contract which handles Merkle Tree inserts (and consequent updates to the root and 'frontier' (see below)).\nThe intention is for other 'derived' contracts to import this contract, and for those derived contracts to manage permissions to actually call the insertLeaf/insertleaves functions of this base contract.\n\n@Author iAmMichaelConnor\n*/\n\npragma solidity ^0.5.8;\n\nimport \"./MiMC.sol\"; // import contract with MiMC function\n\ncontract MerkleTreeMiMC is MiMC {\n\n    /*\n    @notice Explanation of the Merkle Tree in this contract:\n    This is an append-only merkle tree; populated from left to right.\n    We do not store all of the merkle tree's nodes. We only store the right-most 'frontier' of nodes required to calculate the new root when the next new leaf value is added.\n\n                      TREE (not stored)                       FRONTIER (stored)\n\n                                 0                                     ?\n                          /             \\\n                   1                             2                     ?\n               /       \\                     /       \\\n           3             4               5               6             ?\n         /   \\         /   \\           /   \\           /    \\\n       7       8      9      10      11      12      13      14        ?\n     /  \\    /  \\   /  \\    /  \\    /  \\    /  \\    /  \\    /  \\\n    15  16  17 18  19  20  21  22  23  24  25  26  27  28  29  30      ?\n\n    level  row  width  start#     end#\n      4     0   2^0=1   w=0     2^1-1=0\n      3     1   2^1=2   w=1     2^2-1=2\n      2     2   2^2=4   w=3     2^3-1=6\n      1     3   2^3=8   w=7     2^4-1=14\n      0     4   2^4=16  w=15    2^5-1=30\n\n    height = 4\n    w = width = 2 ** height = 2^4 = 16\n    #nodes = (2 ** (height + 1)) - 1 = 2^5-1 = 31\n\n    */\n\n    /**\n    These events are what the merkle-tree microservice's filters will listen for.\n    */\n    event NewLeaf(uint leafIndex, bytes32 leafValue, bytes32 root);\n    event NewLeaves(uint minLeafIndex, bytes32[] leafValues, bytes32 root);\n\n    //event Output(bytes32[2] input, bytes32[1] output, uint nodeIndex, uint256 leafCount); // for debugging only\n\n    uint constant public treeHeight = 32; //change back to 32 after testing\n    uint public constant treeWidth = 2 ** treeHeight; // 2 ** treeHeight\n    uint public leafCount; // the number of leaves currently in the tree\n\n    /**\n    Whilst ordinarily, we'd work solely with bytes32, we need to truncate nodeValues up the tree. Therefore, we need to declare certain variables with lower byte-lengths:\n    LEAF_HASHLENGTH = 32 bytes;\n    NODE_HASHLENGTH = 27 bytes;\n    5 byte difference * 8 bits per byte = 40 bit shift to truncate hashlengths.\n    27 bytes * 2 inputs to sha() = 54 byte input to sha(). 54 = 0x36.\n    If in future you want to change the truncation values, search for '27', '40' and '0x36'.\n    */\n    //Changed to bytes32 for MiMC hashing\n    bytes32 constant zero = 0x0000000000000000000000000000000000000000000000000000000000000000;\n    bytes32[32] frontier; // the right-most 'frontier' of nodes required to calculate the new root when the next new leaf value is added.\n\n    /**\n    @notice Get the index of the frontier (or 'storage slot') into which we will next store a nodeValue (based on the leafIndex currently being inserted). See the top-level README for a detailed explanation.\n    @return uint - the index of the frontier (or 'storage slot') into which we will next store a nodeValue\n    */\n    function getFrontierSlot(uint leafIndex) public pure returns (uint slot) {\n        slot = 0;\n        if ( leafIndex % 2 == 1 ) {\n            uint exp1 = 1;\n            uint pow1 = 2;\n            uint pow2 = pow1 << 1;\n            while (slot == 0) {\n                if ( (leafIndex + 1 - pow1) % pow2 == 0 ) {\n                    slot = exp1;\n                } else {\n                    pow1 = pow2;\n                    pow2 = pow2 << 1;\n                    exp1++;\n                }\n            }\n        }\n    }\n\n    /**\n    @notice Insert a leaf into the Merkle Tree, update the root, and update any values in the (persistently stored) frontier.\n    @param leafValue - the value of the leaf being inserted.\n    @return bytes32 - the root of the merkle tree, after the insert.\n    */\n    function insertLeaf(bytes32 leafValue) public returns (bytes32 root) {\n\n        // check that space exists in the tree:\n        require(treeWidth > leafCount, \"There is no space left in the tree.\");\n\n        uint slot = getFrontierSlot(leafCount);\n        uint nodeIndex = leafCount + treeWidth - 1;\n        bytes32 nodeValue = leafValue; // nodeValue is the hash, which iteratively gets overridden to the top of the tree until it becomes the root.\n\n        bytes32[2] memory input; //input of the hash fuction\n\n        for (uint level = 0; level < treeHeight; level++) {\n\n            if (level == slot) frontier[slot] = nodeValue;\n\n            if (nodeIndex % 2 == 0) {\n                // even nodeIndex\n                input[0] = frontier[level];\n                input[1] = nodeValue;\n\n                nodeValue = mimcHash2(input); // the parentValue, but will become the nodeValue of the next level\n                nodeIndex = (nodeIndex - 1) / 2; // move one row up the tree\n            } else {\n                // odd nodeIndex\n                input[0] = nodeValue;\n                input[1] = zero;\n\n                nodeValue = mimcHash2(input); // the parentValue, but will become the nodeValue of the next level\n                nodeIndex = nodeIndex / 2; // move one row up the tree\n            }\n        }\n\n        root = nodeValue;\n\n        emit NewLeaf(leafCount, leafValue, root); // this event is what the merkle-tree microservice's filter will listen for.\n\n        leafCount++; // the incrememnting of leafCount costs us 20k for the first leaf, and 5k thereafter\n\n        return root; //the root of the tree\n    }\n\n    /**\n    @notice Insert multiple leaves into the Merkle Tree, and then update the root, and update any values in the (persistently stored) frontier.\n    @param leafValues - the values of the leaves being inserted.\n    @return bytes32[] - the root of the merkle tree, after all the inserts.\n    */\n    function insertLeaves(bytes32[] memory leafValues) public returns (bytes32 root) {\n\n        uint numberOfLeaves = leafValues.length;\n\n        // check that space exists in the tree:\n        require(treeWidth > leafCount, \"There is no space left in the tree.\");\n        if (numberOfLeaves > treeWidth - leafCount) {\n            uint numberOfExcessLeaves = numberOfLeaves - (treeWidth - leafCount);\n            // remove the excess leaves, because we only want to emit those we've added as an event:\n            for (uint xs = 0; xs < numberOfExcessLeaves; xs++) {\n                /*\n                  CAUTION!!! This attempts to succinctly achieve leafValues.pop() on a **memory** dynamic array. Not thoroughly tested!\n                  Credit: https://ethereum.stackexchange.com/a/51897/45916\n                */\n\n                assembly {\n                  mstore(leafValues, sub(mload(leafValues), 1))\n                }\n            }\n            numberOfLeaves = treeWidth - leafCount;\n        }\n\n        uint slot;\n        uint nodeIndex;\n        bytes32 nodeValue;\n\n        bytes32[2] memory input;\n\n        bytes32[32] memory tempFrontier = frontier;\n\n        // consider each new leaf in turn, from left to right:\n        for (uint leafIndex = leafCount; leafIndex < leafCount + numberOfLeaves; leafIndex++) {\n            nodeValue = leafValues[leafIndex - leafCount];\n            nodeIndex = leafIndex + treeWidth - 1; // convert the leafIndex to a nodeIndex\n\n            slot = getFrontierSlot(leafIndex); // determine at which level we will next need to store a nodeValue\n\n            if (slot == 0) {\n                tempFrontier[slot] = nodeValue; // store in frontier\n                continue;\n            }\n\n            // hash up to the level whose nodeValue we'll store in the frontier slot:\n            for (uint level = 1; level <= slot; level++) {\n                if (nodeIndex % 2 == 0) {\n                    // even nodeIndex\n                    input[0] = tempFrontier[level - 1]; //replace with push?\n                    input[1] = nodeValue;\n\n                    nodeValue = mimcHash2(input); // the parentValue, but will become the nodeValue of the next level\n                    nodeIndex = (nodeIndex - 1) / 2; // move one row up the tree\n                } else {\n                    // odd nodeIndex\n                    input[0] = nodeValue;\n                    input[1] = zero;\n\n                    nodeValue = mimcHash2(input); // the parentValue, but will become the nodeValue of the next level\n                    nodeIndex = nodeIndex / 2; // the parentIndex, but will become the nodeIndex of the next level\n                }\n            }\n            tempFrontier[slot] = nodeValue; // store in frontier\n        }\n\n        // assign the new, final frontier values into storage:\n        for (uint level = 0; level < frontier.length; level++) {\n            if (frontier[level] != tempFrontier[level]) {\n                frontier[level] = tempFrontier[level];\n            }\n        }\n        delete tempFrontier;\n\n        // So far we've added all leaves, and hashed up to a particular level of the tree. We now need to continue hashing from that level until the root:\n        for (uint level = slot + 1; level <= treeHeight; level++) {\n\n            if (nodeIndex % 2 == 0) {\n                // even nodeIndex\n                input[0] = frontier[level - 1];\n                input[1] = nodeValue;\n\n                nodeValue = mimcHash2(input); // the parentValue, but will become the nodeValue of the next level\n                nodeIndex = (nodeIndex - 1) / 2;  // the parentIndex, but will become the nodeIndex of the next level\n            } else {\n                // odd nodeIndex\n                input[0] = nodeValue;\n                input[1] = zero;\n\n                nodeValue = mimcHash2(input); // the parentValue, but will become the nodeValue of the next level\n                nodeIndex = nodeIndex / 2;  // the parentIndex, but will become the nodeIndex of the next level\n            }\n\n        }\n\n        root = nodeValue;\n\n        emit NewLeaves(leafCount, leafValues, root); // this event is what the merkle-tree microservice's filter will listen for.\n\n        leafCount += numberOfLeaves; // the incrememnting of leafCount costs us 20k for the first leaf, and 5k thereafter\n        return root; //the root of the tree\n    }\n}\n",
  "sourcePath": "/Users/miranda.Wooduk.ey.com/timbermidnight/timber/deployer/contracts/MerkleTreeMiMC.sol",
  "compiler": {
    "name": "solc",
    "version": "0.5.8+commit.23d335f2.Emscripten.clang"
  },
  "schemaVersion": "3.0.19",
  "updatedAt": "2020-07-23T09:27:46.282Z",
  "devdoc": {
    "methods": {
      "getFrontierSlot(uint256)": {
        "return": "uint - the index of the frontier (or 'storage slot') into which we will next store a nodeValue"
      },
      "insertLeaf(bytes32)": {
        "params": {
          "leafValue": "- the value of the leaf being inserted."
        },
        "return": "bytes32 - the root of the merkle tree, after the insert."
      },
      "insertLeaves(bytes32[])": {
        "params": {
          "leafValues": "- the values of the leaves being inserted."
        },
        "return": "bytes32[] - the root of the merkle tree, after all the inserts."
      }
    }
  },
  "userdoc": {
    "methods": {
      "getFrontierSlot(uint256)": {
        "notice": "Get the index of the frontier (or 'storage slot') into which we will next store a nodeValue (based on the leafIndex currently being inserted). See the top-level README for a detailed explanation."
      },
      "insertLeaf(bytes32)": {
        "notice": "Insert a leaf into the Merkle Tree, update the root, and update any values in the (persistently stored) frontier."
      },
      "insertLeaves(bytes32[])": {
        "notice": "Insert multiple leaves into the Merkle Tree, and then update the root, and update any values in the (persistently stored) frontier."
      }
    }
  }
}